:020000040800F2
:10000000D0040020ED01000835200008391F000849
:1000100031200008F9020008A930000800000000A3
:100020000000000000000000000000003D2000086B
:10003000FD020008000000003920000841200008EF
:10004000070200080702000807020008070200086C
:10005000070200080702000807020008070200085C
:10006000070200080702000807020008070200084C
:10007000070200080702000807020008070200083C
:10008000070200080702000807020008070200082C
:10009000070200080702000807020008070200081C
:1000A000070200080702000807020008070200080C
:1000B00007020008070200080702000807020008FC
:1000C00007020008070200080702000807020008EC
:1000D000070200089D300008070200080702000818
:1000E00007020008070200080702000807020008CC
:1000F00007020008070200080702000807020008BC
:1001000007020008070200080702000807020008AB
:10011000070200080702000807020008070200089B
:10012000070200080702000807020008070200088B
:10013000070200080702000807020008070200087B
:10014000070200080702000807020008070200086B
:10015000070200080702000807020008070200085B
:10016000070200080702000807020008070200084B
:10017000070200080702000807020008070200083B
:10018000070200080702000807020008070200082B
:10019000070200080000000007020008070200082C
:1001A000070200080702000807020008070200080B
:1001B00007020008070200080702000807020008FB
:1001C00007020008070200080702000807020008EB
:1001D0000702000807020008DFF80CD000F07AF8E8
:1001E00000480047CD300008D00400200648804772
:1001F00006480047FEE7FEE7FEE7FEE7FEE7FEE70C
:10020000FEE7FEE7FEE7FEE745200008D90100080B
:100210002DE9F05F0546002092469B46884606463B
:10022000814640241BE0284641464746224600F0CE
:1002300041F853465A46C01A914110D31146184608
:10024000224600F028F82D1A67EB01084F46224697
:100250000120002100F01FF817EB00094E41201E7D
:10026000A4F10104DFDC484631462A464346BDE896
:10027000F09FD2B201E000F8012B491EFBD270477B
:100280000022F6E710B513460A4604461946FFF762
:10029000F0FF204610BD202A04DB203A00FA02F1CC
:1002A000002070479140C2F1200320FA03F3194364
:1002B00090407047202A04DB203A21FA02F0002106
:1002C000704721FA02F3D040C2F120029140084366
:1002D00019467047064C074D06E0E06840F0010300
:1002E00094E8070098471034AC42F6D3FFF778FF44
:1002F0005832000878320008FEE70000704700001E
:10030000EFF3108072B600BFFEE7000080B5014633
:1003100090F82500022825D10868D1E910CE8A6C12
:10032000036823F00E030360136823F480731360E3
:10033000026822F0010202600EF01F00012202FAA0
:1003400000F0CCF80400D1E913205060486D68B18A
:10035000026822F480720260D1E916024260002035
:1003600005E000BF0420C863012000E00020012256
:1003700081F82520002281F8242080BD80B590F8E6
:10038000251002292ED10168D0E910CE826C0B68AD
:1003900023F00E030B600B6823F001030B60116860
:1003A00021F4807111600EF01F02012101FA02F2A6
:1003B000CCF80420D0E913325A60426D32B1136890
:1003C00023F480731360D0E91623536080F825105E
:1003D000826B002180F824100AB190470021084662
:1003E00080BD00BF0421C1630121002280F82510D7
:1003F00080F82420084680BDB0B5044600F00CF912
:10040000054640F20400C2F200004068611C18BFBB
:10041000044400BF00F000F9401BA042FAD3B0BD75
:100420002DE9F04F84B08E4641F20042C4F600023E
:10043000DEF8004006219042019008BF0521002C03
:10044000009100F0D7800198002500F138424FEA72
:10045000B2230098012700264FF00008052B38BF73
:1004600018460090CDF808E00EE000BFDEF800402E
:1004700008F1010834FA07F106F1020607F1010755
:1004800005F1040500F0B680A7F1010A012000FA89
:100490000AF314EA0309E9D0DEF804C00CF0030BF8
:1004A000ABF10104012C17D801987446816803222E
:1004B000E468B2409143B4402143816041684FEA0F
:1004C000480E9943CCF3001303FA0AF30446D043D1
:1004D000194361600CE000BF0321B140019CC84397
:1004E000BBF1030FB64603D1B6464FF0030B23E032
:1004F000E168029A01409368BBF1020F03FA0EF320
:1005000041EA0301E16017D16FF0030101EA5A01EA
:10051000214405F01C040F23D1F820C003FA04FB8A
:1005200013692CEA0B0CA34043EA0C03019C0B62F9
:10053000D2F804C00CF0030B21680BFA0EF2014054
:1005400011432160DDF808E01CF4403F8ED041F2F9
:100550006000C4F20200016840F2004C41F0010169
:1005600001600168C4F2010C01F0010103910399DB
:100570002AF003014FF6084A6144CFF6FF7A05F0EE
:100580000C030F2051F80A2000FA03F40098A2434C
:1005900000FA03F31A4341F80A20DCF80810DEF8E9
:1005A000042041EA090340F20C40D40258BF21EA7A
:1005B0000903CCF80830C4F201000168940241EA52
:1005C000090358BF21EA09030360DCF8041094030F
:1005D00041EA090358BF21EA0903CCF80430DCF8EA
:1005E0000010D20341EA090358BF21EA0903CCF8FD
:1005F00000303BE704B0BDE8F08F0000426902EA3A
:100600000103914341EA0341816170471823002AA5
:1006100008BF2823C150704740F2CC00C2F200004E
:100620000068704740F2040040F2CC01C2F20000C2
:10063000C2F2000140680A68104408607047000078
:1006400080B5032000F088F80F2000F009F800289A
:100650001CBF012080BD00F029F8002080BD0000F3
:1006600070B540F20406C2F200067168E1B10446BA
:1006700040F20C00C2F200004FF47A720068B2FB44
:10068000F1F1B0FBF1F000F0C3FE0F2C4FF00105CB
:1006900008D838B94FF0FF3021460022002500F07D
:1006A0002FF83460284670BD012070BD82B041F241
:1006B0005800C4F20200816841F001018160816844
:1006C00001F0010101910199016841F0805101603F
:1006D000006800F080500090009802B07047000061
:1006E000002848BF704700F01F01012202FA01F103
:1006F0004EF200124009CEF2000242F8201070477C
:1007000010B54EF60C5CCEF2000CDCF80030C3F3F2
:10071000022E8EF00704042C28BF0424BEF103032C
:100720004FF0FF3E0EFA04F438BF0023A143994076
:100730000EFA03F39A43114300F00F02043A6244A5
:1007400009010C3200F16043B0F1FF3FC8BF03F56F
:100750006442117010BD00004EF60C51CEF2000143
:100760000A684FF6FF031A4060F30A2242F08060E5
:1007700040F0FD7008607047B0F5007F42D000285F
:1007800040F0808047F21400C4F2000050F8141CBE
:10079000C26E01F4C06122F48072B1F5806FC2664E
:1007A0002ED150F8141C012262F34A2140F8141C87
:1007B00040F20C01C2F200010968322251434DF6A9
:1007C0008362C4F21B32A1FB0212910C0268520533
:1007D00011D54A1C0FD0026852050CD559B10268D8
:1007E000520508D5012906D00268520503D5022911
:1007F000A1F10401EAD10068400544BF032070471D
:100800000020704747F21400C4F2000050F8141C96
:10081000C26E01F4C06142F48072B1F5806FC266AD
:10082000EED150F8141C012262F34A2140F8141C46
:1008300040F20C01C2F200010968322251434DF628
:100840008362C4F21B32A1FB0212910C02685205B2
:1008500011D54A1C0FD0026852050CD559B1026857
:10086000520508D5012906D00268520503D5022990
:10087000A1F10401EAD10068400544BF032070479C
:10088000BEE700BF47F21400C4F2000050F8141C89
:10089000022262F34A2140F8141C00207047000035
:1008A0002DE9F04182B00446807841F288060007C5
:1008B000C4F2020602D400202FE000BF56F8300C2C
:1008C00010F080580BD156F8300C40F0805046F8AC
:1008D000300C56F8300C00F080500190019847F22F
:1008E0000007C4F20007386840F480703860FFF7F2
:1008F00093FE05463868C00500F10C81FFF78CFEB9
:10090000401B0228F6D90320B8F1000F05D156F894
:10091000301C21F0805146F8301C2168CA0717D1DD
:100920008A071DD44A0723D40A0729D4CA062FD41C
:100930008A0635D44A063BD40A0641D4CA0547D4B0
:100940008A034DD48A0553D44A0559D467E000BFC1
:100950003268636822F003021A4332608A07E1D5E5
:100960003268A36822F00C021A4332604A07DBD5D2
:100970003268E36822F030021A4332600A07D5D5A4
:100980003268236922F0C0021A433260CA06CFD50A
:100990003268636922F440721A4332608A06C9D50C
:1009A0003268A36922F440621A4332604A06C3D512
:1009B0003268E36922F440521A4332600A06BDD518
:1009C0003268236A22F440421A433260CA05B7D51E
:1009D0003268636A22F440321A4332608A03B1D526
:1009E0007269A36A22F003021A4372618A05ABD5C9
:1009F0003268E36A22F440221A4332604A050ED577
:100A00003268236B22F440121A43B3F5801F326020
:100A100005D156F87C2C42F4801246F87C2C0A054D
:100A20000ED53268636B22F440021A43B3F5800F8F
:100A3000326005D156F87C2C42F4801246F87C2CAA
:100A4000CA040ED53268A36B22F040721A43B3F188
:100A5000807F326005D156F87C2C42F4801246F833
:100A60007C2C8A040ED53268E36B22F040621A4374
:100A7000B3F1006F326005D156F87C2C42F480123D
:100A800046F87C2C4A040ED53268236C22F0406272
:100A90001A43B3F1006F326005D156F87C2C42F452
:100AA000801246F87C2C0A040ED53268636C22F062
:100AB00040521A43B3F1805F326005D156F87C2C66
:100AC00042F4803246F87C2CCA030ED53268A36CFF
:100AD00022F040421A43B3F1804F326005D156F8FC
:100AE0007C2C42F4803246F87C2C49030ED5716987
:100AF000E26C21F440111143B2F5001F716105D180
:100B000056F87C1C41F4801146F87C1C02B0BDE80C
:100B1000F08100BFB06810F4407010D0216D8842A1
:100B20000BD0B068B16820F4407041F48031B160FE
:100B3000B16821F48031B160B060C0070CD1B068F9
:100B4000216D20F440700843B0600020B8F1000F20
:100B50007FF4E3AEDBE600BFFFF75EFD054641F242
:100B6000883700BFB0688007E9D4FFF755FD401B08
:100B7000B842F7D9C7E600002DE9F04700286DD04C
:100B800042F2000AC4F2020A0446DAF800000D46F6
:100B900000F00F0088420CD2DAF8000020F00F00BD
:100BA0002843CAF80000DAF8000000F00F00A8425D
:100BB00054D1216841F20808C807C4F2020803D1E1
:100BC000880740F1D880BDE0606802283AD0032849
:100BD00040D158F8082C920140D5D8F80420D8F814
:100BE000043042F2004702F00302C3F30313C0F2E1
:100BF000F4070133032A04BF41F20027C0F27A0749
:100C0000D8F80420B7FBF3F3D8F80470C2F3062237
:100C10005A43C7F34163022707EB4303B2FBF3F2E6
:100C20004BF20043C0F2C4439A4261D9D8F8002085
:100C300012F0F00F51D089075AD5A168002957D179
:100C40004BE000BF58F8081C89035CBF0120BDE8D9
:100C5000F08707E058F8081C490503D40120BDE8D7
:100C6000F08700BFD8F8001001F00C0104293FD034
:100C7000D8F8001001F00C01082939D0D8F800107C
:100C800001F00C010C2933D1D8F80410D8F8042055
:100C900042F2004301F00301C2F30312C0F2F40375
:100CA0000132032904BF41F20023C0F27A03D8F8CD
:100CB0000410B3FBF2F2D8F80430C1F3062151431B
:100CC000C3F34162022303EB4202B1FBF2F14BF2A8
:100CD0000042C0F2C44291420AD9D8F8001008225A
:100CE00062F307114FF00109C8F8001002E000BFDD
:100CF0004FF00009D8F8001021F003010843C8F8AC
:100D00000000FFF789FC064641F28837D8F800005A
:100D1000616800F00C00B0EB810F07D0FFF77CFC9E
:100D2000801BB842F2D90320BDE8F087216888070C
:100D300008D4B9F1000F1ED0D8F8000020F0F00060
:100D400017E000BF480705D5D8F8000040F4E06080
:100D5000C8F80000080706D5D8F80000072262F39B
:100D60000D20C8F80000D8F80000A26820F0F000BC
:100D70001043C8F80000DAF8000000F00F00A842A5
:100D80001BD9DAF8000020F00F002843CAF8000051
:100D9000FFF742FC064641F2883700BFDAF8000050
:100DA00000F00F00A84207D0FFF736FC801BB842C6
:100DB000F4D90320BDE8F0872168480707D5D8F8A3
:100DC0000000E26820F4E0601043C8F80000080763
:100DD00008D5D8F80000216920F4605040EAC1002D
:100DE000C8F80000D8F8000042F20041C0F2F40157
:100DF00000F00C00042808462DD0D8F8000000F0C0
:100E00000C00082841F20020C0F27A0023D0D8F864
:100E1000002002F00C020C2A1CD1D8F80420D8F8CB
:100E2000043002F00302C3F303130133032A08BFA3
:100E30000146D8F80400B1FBF3F1D8F80420C0F360
:100E400006204843C2F34161022202EB4101B0FB9C
:100E5000F1F000E00020D8F8001043F20822C1F3BE
:100E60000311C0F60002515C40F20C0201F01F01B8
:100E700020FA01F140F20400C2F200000068C2F260
:100E800000021160BDE8F047FFF7EABB40F20C003A
:100E900041F20801C2F20000C4F2020100680968D0
:100EA00043F21822C1F30221C0F60002515C01F0A6
:100EB0001F01C8407047000040F20C0041F20801D9
:100EC000C2F20000C4F202010068096843F218226D
:100ED000C1F3C221C0F60002515C01F01F01C840FD
:100EE0007047000041F20C01C4F2020151F8040CF9
:100EF00042F20042C0F2F40200F00C000428104656
:100F000008BF704751F8040C00F00C00082841F2AB
:100F10000020C0F27A0021D051F8043C03F00C0309
:100F20000C2B1CBF00207047D1F800C00B680CF0E0
:100F3000030CC3F303130133BCF1030F08BF0246D4
:100F40000868B2FBF3F20968C0F306205043C1F30E
:100F50004161022202EB4101B0FBF1F07047000059
:100F60002DE9F04182B0002800F0068104460078A7
:100F700041F20006C007C4F2020655D1207880076E
:100F800074D42078000700F197802078400700F1A2
:100F9000B7802078800600F10781E069002840D002
:100FA000B16801F00C010C2940F05681012800F0D5
:100FB000E380F068216A00F003028A4240F0DC809E
:100FC000626A6FF00F0300F0F00103EB021291422E
:100FD00040F0D280A16A00F4FE42B2EB012F40F053
:100FE000CB80E16A00F07842B2EBC16F40F0C48080
:100FF000226B0023CFF6E07303EB025200F4C00132
:101000006FF31402914240F0B780616B4FF07E4263
:1010100002EB016100F0C06001F07E41884240F0C7
:10102000AB800020F1E100BFB06800F00C01F06877
:1010300008295BD0032281F00C0122EA0000084459
:10104000B0FA80F0400951D16068B0F5803F07D018
:10105000B0F5A02F40F0D680306840F4802030609A
:10106000306840F480303060D7E000BFB068F1688D
:1010700000F00C00042869D001F0030180F00C009E
:1010800081F002010844B0FA80F040095ED1E168C5
:101090003068002900F0CE8040F480703060FFF7A7
:1010A000BBFA05463068400500F1EC80FFF7B4FA62
:1010B000401B0228F6D920E16169D6F89400002986
:1010C00000F08C8040F00100C6F89400FFF7A4FA0D
:1010D000054600BFD6F8940080073FF556AFFFF7EE
:1010E0009BFA401B0228F5D907E100BF3068800356
:1010F0007FF544AF606800287FF440AF3CE000BF5C
:10110000B06D10F0805808D1B06D40F08050B065DF
:10111000B06D00F080500190019847F20007C4F2D2
:1011200000073868C0052BD4386840F480703860F8
:10113000FFF772FA054600BF3868C00520D4FFF7F4
:101140006BFA401B0228F7D9D7E000BF3068400592
:1011500001D5E06880B17068216920F0FE4040EA66
:101160000160706040F20400C2F200000068FFF706
:1011700077FA00283FF405AF012002B0BDE8F08106
:10118000A068012808D0052840F09A80D6F8900081
:1011900040F00400C6F89000D6F8900040F001003E
:1011A000C6F890009AE000BFA169D6F8980000291F
:1011B00070D040F00100C6F89800FFF72DFA054600
:1011C000D6F8980080073FF5E8AEFFF725FA401BF8
:1011D00002284FF00300F3D917E100BF20F001000F
:1011E000C6F89400FFF718FA054600BFD6F8940039
:1011F00080077FF5CAAEFFF70FFA401B0228F5D92A
:101200007BE000BF3168002821F480313160316813
:1012100021F48021316000F08F80FFF7FDF9054651
:10122000306880033FF5AAAEFFF7F6F9401B64284B
:10123000F6D962E020F480703060FFF7EDF90546E2
:10124000306840057FF59DAEFFF7E6F9401B0228A8
:101250004FF00300F4D9D8E03168022821F0807102
:1012600031604FD1FFF7D8F9054600BF30688001E3
:1012700040F18E80FFF7D0F9401B02284FF00300A9
:10128000F4D9C2E07068216920F0FE4040EA0160B4
:10129000706076E620F00100C6F89800FFF7BCF910
:1012A000054600BFD6F8980080077FF576AEFFF7B9
:1012B000B3F9401B02284FF00300F3D9A5E000BFAB
:1012C000D6F89010002821F00101C6F89010D6F849
:1012D000901021F00401C6F890103DD0FFF79CF962
:1012E000054641F2883700BFD6F89000800745D404
:1012F000FFF792F9401BB842F6D9032002B0BDE8CF
:10130000F08100BFF0684FF6FF7120F00300F0603D
:10131000F068CFF6EE610840F060FFF77DF9044613
:10132000306880017FF57DAEFFF776F9001B02285B
:101330004FF00300F4D968E0FFF76EF9054600BFEF
:10134000306880037FF51AAEFFF766F9401B64280A
:101350004FF00300F4D958E0FFF75EF9054641F27B
:10136000883700BFD6F89000800707D5FFF754F9FB
:10137000401BB8424FF00300F4D946E0B8F1000F2B
:101380007FF407AEB06D20F08050B06501E600BF7D
:10139000F06848F20C01C0F29F1104F1200700EA46
:1013A000010C8ECF6FF00F00D4E90C5400EB02104B
:1013B0000022CFF6E07241EA0C0102EB055208432D
:1013C0006FF314024FF07E4540EA032005EB0465FD
:1013D000104305F07E4540EAC7602843F06030685E
:1013E00040F080703060F06840F08070F060FFF78F
:1013F00013F90446306880013FF513AEFFF70CF98E
:10140000001B02284FF00300F4D902B0BDE8F081C0
:10141000411E0020B0EB116F1CBF012070474EF23F
:101420001002CEF2000251604EF62351CEF20001BE
:10143000F0230B70072190601160704790F88010C6
:10144000012904BF022070472421C0F884100268DB
:101450001168136823F00103136021F00053002189
:10146000416613602022C0F8842080F8801008466E
:10147000704700007047000070470000B0B590F85A
:101480008020012A04BF0220B0BD2422C0F884209D
:101490000268D0F864E0D2F800C01368BEF1000F13
:1014A00023F001031360936823F0606341EA0301B2
:1014B000916019D09368916843F2482E490FC0F6A5
:1014C000000E43F250251EF80140C0F60005695C8D
:1014D000C3F34263E400B4FBF1F11EF80340EB5C9C
:1014E000E500B5FBF3F301E001210123A0F86A1048
:1014F0002021A0F86830C2F800C0C0F88410002194
:1015000080F880100846B0BDB0B590F88020012A60
:1015100004BF0220B0BD2422C0F884200268D0F8A5
:1015200064E0D2F800C01368BEF1000F23F001039D
:101530001360936823F0604341EA0301916019D07E
:101540009368916843F2482E490FC0F6000E43F2AB
:1015500050251EF80140C0F60005695CC3F34263E4
:10156000E400B4FBF1F11EF80340EB5CE500B5FBD1
:10157000F3F301E001210123A0F86A102021A0F873
:101580006830C2F800C0C0F88410002180F88010D4
:101590000846B0BD7047000070470000704700006B
:1015A00070B5016840F62F03CA69044608688E6862
:1015B0001340202B0ED100F0200306F080555B195C
:1015C00019D0216F002900F07F802046BDE87040CF
:1015D000084700BF40F60F031A420CD00123C1F2A6
:1015E000000306EA030C40F22013C0F2004303405C
:1015F00013EB0C036AD1E36E012B05D112F010033B
:1016000018BF10F010034DD1D3020BD516F4800390
:1016100008D04FF4801220460A62BDE87040FFF700
:10162000BBBF00BF130606D500F0800306F400061A
:101630009B1940F00B82530640F1908110F040035B
:1016400000F08C8151E8000F216820F0400041E853
:101650000002002A00F08E81206850E8000F216807
:1016600020F0400041E80002002A00F08381206859
:1016700050E8000F216820F0400041E80002002AF5
:1016800000F07881206850E8000F216820F04000C9
:1016900041E80002002A00F06D81206850E8000F48
:1016A000D2E700BF102008628868400600F19880E9
:1016B000B4F85C00B4F85E20B4F85E30002B1CBFB8
:1016C000801A5FEA00420ED170BD00BFD30718BF79
:1016D00010F4807340F05881930706F0010E00F17A
:1016E0005F8168E1216851E8001F226821F4907150
:1016F00042E80013DBB1216851E8001F226821F4A1
:10170000907142E8001393B1216851E8001F2268EC
:1017100021F4907142E800134BB1216851E8001F99
:10172000226821F4907142E80013002BDAD14FF6C1
:10173000FE71CEF6FF7100BF226852E8022F2368C7
:101740000A4043E80226C6B1226852E8022F236805
:101750000A4043E8022686B1226852E8022F236835
:101760000A4043E8022646B1226852E8022F236865
:101770000A4043E80226002EDED12021C4F888105A
:101780000021E166216700BF216851E8001F22683F
:1017900021F0100142E80013002B00F0D9802168ED
:1017A00051E8001F226821F0100142E80013002BCD
:1017B00000F0CE80216851E8001F226821F010015E
:1017C00042E80013002B00F0C380216851E8001F9D
:1017D000226821F0100142E80013002BD4D1B7E0B9
:1017E000E06F0268536898B200283FF46DAFB4F818
:1017F0005CC06045BFF468AFA4F85E301068800636
:1018000000F1A28051E8000F216820F4807041E8C7
:101810000002FAB1206850E8000F216820F48070BF
:1018200041E80002B2B1206850E8000F216820F4BE
:10183000807041E800026AB1206850E8000F21681A
:1018400020F4807041E8000222B1206850E8000FC7
:10185000DAE700BF206850E8020F216820F001009D
:1018600041E80202BAB3206850E8020F216820F074
:10187000010041E8020272B3206850E8020F2168BB
:1018800020F0010041E802022AB3206850E8020F6C
:10189000216820F0010041E80202002ADAD11AE0B2
:1018A000206850E8020F216820F0400041E8020261
:1018B000DAB1206850E8020F216820F0400041E8CA
:1018C000020292B1206850E8020F216820F0400027
:1018D00041E802024AB1206850E8020F216820F076
:1018E000400041E80202002ADAD12020C4F8880032
:1018F0000020E066206850E8000F216820F010000A
:1019000041E80002DAB1206850E8000F216820F0B9
:10191000100041E8000292B1206850E8000F2168F1
:1019200020F0100041E800024AB1206850E8000FA2
:10193000216820F0100041E80002002ADAD1E06FAF
:10194000FEF7E4FCB4F85CC0B4F85E00ACEB000059
:1019500081B22046BDE87040FFF78CBD110240F116
:101960001F8110F0804100F01B812046BDE87040CF
:10197000FFF710BE20200021C4F8840020466167D4
:10198000BDE8704000F0D6BA01230B62D4F88C3069
:1019900043F00103C4F88C30930706F0010E0AD51A
:1019A000BEF1000F07D002230B62D4F88C3043F055
:1019B0000403C4F88C3053070AD5BEF1000F07D0DA
:1019C00004230B62D4F88C3043F00203C4F88C304B
:1019D00013070CD500F0200353EA0C0307D00823AB
:1019E0000B62D4F88C3043F00803C4F88C30130534
:1019F0000BD510F0806308D04FF400630B62D4F86D
:101A00008C3043F02003C4F88C30D4F88C30002B99
:101A10003FF45AAE12F020021EBF00F0200006F084
:101A2000805210EB020040F0DF80D4F88C008A680E
:101A300000F0280002F0400280180DD12046FFF788
:101A4000ADFD0020C4F88C0070BD00BF616F00299F
:101A50007FF4BBAD38E600BF51E8000F216820F4E9
:101A6000907041E80002FAB1206850E8000F216848
:101A700020F4907041E80002B2B1206850E8000FF5
:101A8000216820F4907041E800026AB1206850E8B3
:101A9000000F216820F4907041E8000222B1206814
:101AA00050E8000FDAE700BF4FF6FE70CEF6FF7089
:101AB000216851E8021F2268014042E80213C3B1C5
:101AC000216851E8021F2268014042E8021383B1F5
:101AD000216851E8021F2268014042E8021343B125
:101AE000216851E8021F2268014042E80213002BDE
:101AF000DED1E06E012824D1206850E8000F216873
:101B000020F0100041E80002DAB1206850E8000F30
:101B1000216820F0100041E8000292B1206850E8EE
:101B2000000F216820F0100041E800024AB120684F
:101B300050E8000F216820F0100041E80002002A60
:101B4000DAD120200021C4F88800E16620682167EE
:101B50008168490642D550E8020F216820F0400014
:101B600041E8020242B3206850E8020F216820F0E9
:101B7000400041E80202FAB1206850E8020F2168F3
:101B800020F0400041E80202B2B1206850E8020FA4
:101B9000216820F0400041E802026AB12068DAE7DB
:101BA000D1017FF591ADB0F1FF3FC8BF70BD2046B8
:101BB000BDE87040FFF760BCE06F78B142F24111C0
:101BC000C0F600018163FEF7D9FB00283FF47CAD2D
:101BD000E06F816BBDE87040084700BF2046BDE85C
:101BE0007040FFF7DBBC00BF226F002A3FF41DAF3F
:101BF00020469047216818E7B0B582B0B0B10446DE
:101C0000D0F8840028B9002084F88000204600F035
:101C100059F82420C4F884002068016821F00101EB
:101C20000160204600F08EFE012803D1012002B0A1
:101C3000B0BD00BFA06A10B1204600F00DFA2068C8
:101C4000416821F490414160816821F02A0181605E
:101C5000016841F0010101600020C4F88C00FEF72A
:101C6000DBFC216805460A6812070CD56FF07E4C34
:101C700020464FF4001100222B46CDF800C001F0A1
:101C800003F978B92168086840070FD56FF07E4CDA
:101C900020464FF4800100222B46CDF800C001F011
:101CA000F3F818B1032002B0B0BD00BF2020C4F883
:101CB0008400C4F888000020E06684F8800002B048
:101CC000B0BD000010B59AB00446684608304C21FB
:101CD000FEF7D6FA206843F60001C4F201018842FB
:101CE00002D01AB010BD00BF012000900024684649
:101CF0000194FEF7D5FD002818BFFEF701FB41F265
:101D00004C00C4F20200416941F4804141614169E3
:101D100001F4804115911599016841F001010160BC
:101D2000006815A900F00100159015984FF4C060E7
:101D300015900220CDE91604072019904FF090402D
:101D40001894FEF76DFB252000210022FEF7D8FC39
:101D50002520FEF7C5FC1AB010BD000080B5D0F8F4
:101D60008830202B0CD100294FF0010318BF002A26
:101D700002D1184680BD00BF90F88030012B01D100
:101D8000022080BD012380F880300023C366D0F894
:101D900000C048F20003C4F200039C4503D0DCF805
:101DA00004301B0204D400F02DFF0023184680BD30
:101DB0005CE800CFD0F800E04CF080634EE8003CD7
:101DC000BCF1000FEFD0036853E800CFD0F800E07B
:101DD0004CF080634EE8003CBCF1000FE3D0036898
:101DE00053E800CFD0F800E04CF080634EE8003CB0
:101DF000BCF1000FD7D0036853E800CFD0F800E063
:101E00004CF080634EE8003CBCF1000FCBD003687F
:101E100053E800CFCEE70000B0B5006843F60001FC
:101E2000C4F20101884218BFB0BD40F2380440F24C
:101E3000C805C2F20004C2F200052046294601226C
:101E40004FF47A7300F008F8204629460122BDE8D5
:101E5000B040FFF783BF00002DE9F04381B0044696
:101E6000D0F8840020280BD10E4600294FF0010045
:101E70005CD01746002A59D094F88000012803D17D
:101E8000022001B0BDE8F083012084F880004FF00B
:101E9000000921201D46C4F88C90C4F88400FEF788
:101EA000BBFBA4F85470A4F85670A1680746B1F5BE
:101EB000805F07D1206900281CBF30464E46B046DF
:101EC000064601E04FF0000884F8809009E000BF6A
:101ED00016F8010B21688862B4F856000138A4F89E
:101EE0005600B4F8560088B12046802100223B46B7
:101EF000009500F0C9FF88B9002EE9D138F8020B2F
:101F000021686FF35F2088620026E5E720464021C4
:101F100000223B46009500F0B7FF18B1032001B046
:101F2000BDE8F0832020C4F88400002001B0BDE8A3
:101F3000F083000070470000FEE7000070B586B037
:101F4000002541F24C000595C4F20200016840F6FC
:101F5000000441F0200101600168C4F6000401F0B2
:101F60002001009100990168012241F00401016003
:101F70000168012601F0040100910099016841F017
:101F8000010101600068012100F00100009000984B
:101F90002046FEF73BFB01A92046CDE90166CDE9CD
:101FA0000355FEF73DFA06B070BD000080B540F263
:101FB000380043F60001C2F20000C4F20101002320
:101FC0004FF00C0C4FF4E13280E80E00C0E903330F
:101FD000C0E905C3C0E90733C0E90933FFF70CFEC8
:101FE000002818BFFEF78CF940F23800C2F200005A
:101FF0000021FFF789FA002818BFFEF781F940F2A7
:102000003800C2F200000021FFF738FA002818BF9C
:10201000FEF776F940F23800C2F20000FFF70EFA40
:10202000002808BF80BDBDE88040FEF769B9000008
:10203000FEE70000FEE70000704700007047000068
:10204000FEF7F0BA4EF68850CEF20000016841F477
:10205000700101607047000080B5816ACA070DD128
:102060008A0716D44A071FD40A0728D4CA0631D4CF
:102070008A063AD44A0658D542E000BF0268D0F832
:102080002CC0536823F4003343EA0C0353608A07DF
:10209000E8D50268D0F830C0536823F4803343EAAF
:1020A0000C0353604A07DFD50268D0F834C0536888
:1020B00023F4802343EA0C0353600A07D6D5026851
:1020C000D0F838C0536823F4004343EA0C0353604C
:1020D000CA06CDD50268D0F83CC0936823F480537B
:1020E00043EA0C0393608A06C4D50268D0F840C066
:1020F000936823F4005343EA0C0393604A0614D513
:102100000268D0F844C05368BCF5801F23F48013E4
:1021100043EA0C03536008D1D2F804C0D0F848E079
:102120002CF4C00343EA0E035360090658BF80BD78
:102130000168C06C4A6822F400221043486080BDE8
:10214000806A0021A0F85E10A0F85610FFF726BAAA
:10215000B0F860200168D0F88830222B40F09880D9
:10216000D1F824C0836D02EA0C0223F8022B8365A8
:10217000B0F85E20013AA0F85E20B0F85E20002A98
:1021800018BF704751E8001F026821F4907142E8BF
:102190000013C3B3016851E8001F026821F4907175
:1021A00042E800137BB3016851E8001F026821F484
:1021B000907142E8001333B3016851E8001F0268D0
:1021C00021F4907142E80013EBB10168DAE700BF37
:1021D000016851E8021F026821F0010142E8021380
:1021E000DBB1016851E8021F026821F0010142E8F9
:1021F000021393B1016851E8021F026821F0010146
:1022000042E802134BB1016851E8021F026821F055
:10221000010142E80213002BDAD12021C0F8881016
:1022200000210167C26E012A18BFFFF7F5BDC16624
:10223000016851E8001F026821F0100142E8001314
:10224000DBB1016851E8001F026821F0100142E88B
:10225000001393B1016851E8001F026821F01001DA
:1022600042E800134BB1016851E8001F026821F0F9
:10227000100142E80013002BDAD10168CA69D206C6
:1022800044BF10220A62B0F85C10FFF7F3B800BF39
:10229000886940F008008861704700002DE9F04F20
:1022A00081B004460068B4F86050C3690168826870
:1022B000D4F88870222F5FD1B4F86870002F18BF4F
:1022C00013F0200360D1B4F85E00002858D0B4F8B1
:1022D0006810884254D200BF206850E8020F21687D
:1022E00020F0805041E80202DAB1206850E8020F85
:1022F000216820F0805041E8020292B1206850E845
:10230000020F216820F0805041E802024AB12068A3
:1023100050E8020F216820F0805041E80202002AB4
:10232000DAD142F25110C0F600002067206850E870
:10233000000F216840F0200041E8000202B320684D
:1023400050E8000F216840F0200041E80002BAB1D7
:10235000206850E8000F216840F0200041E80002AA
:1023600072B1206850E8000F216840F0200041E879
:102370000002002ADAD103E0816941F0080181619D
:1023800001B0BDE8F08F00BF4FF6FE7601F4807813
:1023900002F00107CEF6FF764FF020094FF0000A59
:1023A000416AA26D294022F8021BA265B4F85E10B2
:1023B0000139A4F85E10D0F81CB05FEA4B7130D040
:1023C0005FEACB7218BFB8F1000F03D15FEA8B72DE
:1023D0000BD413E001220262D4F88C2042F00102F7
:1023E000C4F88C205FEA8B7208D53FB102220262EA
:1023F000D4F88C2042F00402C4F88C20002908D5BF
:102400003FB104210162D4F88C0040F00200C4F80E
:102410008C00D4F88C0020B12046FFF7BFF8C4F838
:102420008CA0B4F85E00002840F08080206850E85E
:10243000000F216820F4807041E80002E2B12068BA
:1024400050E8000F216820F4807041E800029AB142
:10245000206850E8000F216820F4807041E80002F5
:1024600052B1206850E8000F216820F4807041E8E4
:102470000002002ADAD100BF206850E8020F21686C
:10248000304041E80202C2B1206850E8020F2168E2
:10249000304041E8020282B1206850E8020F216812
:1024A000304041E8020242B1206850E8020F216842
:1024B000304041E80202002ADED1C4F88890C4F816
:1024C00070A0E06E012837D1C4F86CA0206850E8F5
:1024D000000F216820F0100041E80002DAB1206806
:1024E00050E8000F216820F0100041E8000292B18E
:1024F000206850E8000F216820F0100041E8000239
:102500004AB1206850E8000F216820F0100041E82F
:102510000002002ADAD12068C169C90644BF10212F
:102520000162B4F85C102046FEF7A4FF5FEA8B60FE
:102530007FF5C9AE206833E72046FFF76DFC5FEA00
:102540008B60F7D4BFE60000B0F860100268D0F8E6
:102550008830222B40F09880526A836D11401970A8
:10256000816D01318165B0F85E100139A0F85E100F
:10257000B0F85E10002918BF704700BF016851E82D
:10258000001F026821F4907142E80013E3B1016872
:1025900051E8001F026821F4907142E800139BB1DA
:1025A000016851E8001F026821F4907142E80013AD
:1025B00053B1016851E8001F026821F4907142E8AC
:1025C0000013002BDAD100BF016851E8021F026836
:1025D00021F0010142E80213DBB1016851E8021F5A
:1025E000026821F0010142E8021393B1016851E849
:1025F000021F026821F0010142E802134BB1016899
:1026000051E8021F026821F0010142E80213002B89
:10261000DAD12021C0F8881000210167C26E012A9A
:1026200018BFFFF7F9BBC166016851E8001F0268D7
:1026300021F0100142E80013DBB1016851E8001FEE
:10264000026821F0100142E8001393B1016851E8DB
:10265000001F026821F0100142E800134BB101682D
:1026600051E8001F026821F0100142E80013002B1E
:10267000DAD10168CA69D20644BF10220A62B0F8F2
:102680005C10FEF7F7BE00BF906940F00800906153
:10269000704700002DE9F04F81B004460068B4F89F
:1026A0006050C36901688268D4F88870222F5FD1B6
:1026B000B4F86870002F18BF13F0200360D1B4F88D
:1026C0005E00002858D0B4F86810884254D200BF89
:1026D000206850E8020F216820F0805041E8020293
:1026E000DAB1206850E8020F216820F0805041E8FC
:1026F000020292B1206850E8020F216820F0805059
:1027000041E802024AB1206850E8020F216820F037
:10271000805041E80202002ADAD142F24950C0F664
:1027200000002067206850E8000F216840F020007A
:1027300041E8000202B3206850E8000F216840F031
:10274000200041E80002BAB1206850E8000F21687B
:1027500040F0200041E8000272B1206850E8000F0C
:10276000216840F0200041E80002002ADAD103E0AD
:10277000816941F00801816101B0BDE8F08F00BFBF
:102780004FF6FE7601F4807802F00107CEF6FF7670
:102790004FF020094FF0000A406AA16D28400870F0
:1027A000A16D20680131A165B4F85E100139A4F86B
:1027B0005E10D0F81CB05FEA4B7130D05FEACB728C
:1027C00018BFB8F1000F03D15FEA8B720BD413E08E
:1027D00001220262D4F88C2042F00102C4F88C205D
:1027E0005FEA8B7208D53FB102220262D4F88C20D6
:1027F00042F00402C4F88C20002908D53FB104211E
:102800000162D4F88C0040F00200C4F88C00D4F8C7
:102810008C0020B12046FEF7C1FEC4F88CA0B4F8AD
:102820005E00002840F08080206850E8000F21689A
:1028300020F4807041E80002E2B1206850E8000F07
:10284000216820F4807041E800029AB1206850E8C5
:10285000000F216820F4807041E8000252B1206826
:1028600050E8000F216820F4807041E80002002A3F
:10287000DAD100BF206850E8020F2168304041E8FB
:102880000202C2B1206850E8020F2168304041E8DE
:10289000020282B1206850E8020F2168304041E80E
:1028A000020242B1206850E8020F2168304041E83E
:1028B0000202002ADED1C4F88890C4F870A0E06E4D
:1028C000012837D1C4F86CA0206850E8000F2168B7
:1028D00020F0100041E80002DAB1206850E8000F53
:1028E000216820F0100041E8000292B1206850E811
:1028F000000F216820F0100041E800024AB1206872
:1029000050E8000F216820F0100041E80002002A82
:10291000DAD12068C169C90644BF10210162B4F848
:102920005C102046FEF7A6FD5FEA8B607FF5C7AE20
:10293000206831E72046FFF76FFA5FEA8B60F7D433
:10294000BDE6000070B504462269D4E902130068B0
:102950000A436169E6691143026846F6F315CCF64D
:10296000FF7531432A4011430160416848F2000C71
:1029700021F4405119434160A269C4F2000C604542
:102980001CBF216A0A4381684FF2FF43C1F2FF1363
:10299000194011438160C16AD4F824E021F00F018D
:1029A00041EA0E01C16244F6FF71C4F2000188429F
:1029B0004FF0100318DC44F20041C4F200018842D9
:1029C00028D044F60001C4F2000188422AD044F61F
:1029D0000041C4F20001884242D141F28801C4F2B0
:1029E000020109688B0933E045F20001C4F20001DD
:1029F00088421FD0604525D043F60001C4F2010192
:102A000088422DD141F28801C4F202010B6879A2FB
:102A100022E000BF41F28801C4F2020109688B087C
:102A200016E000BF41F28801C4F2020109680B09F7
:102A30000EE000BF41F28801C4F2020109680B0AEE
:102A400006E000BF41F28801C4F2020109688B0A66
:102A500043F23822C0F6000203F0030152F821309D
:102A6000604542F20040C0F2F40015D0B6F5004FC8
:102A700024D1082B4FF0010100F2B380DFE803F00E
:102A8000065E6CB164B1B1B16A0000BFFEF7FEF939
:102A9000002856D15CE000BF082B4FF0010100F286
:102AA000A080DFE803F0059E259E1D9E9E9E2300CC
:102AB000FEF7ECF9C0B1D4F824E019E0082B4FF090
:102AC000010100F28E80DFE803F00565738C6B8CEA
:102AD0008C8C7100FEF7DAF900285ED164E000BF4B
:102AE000FEF700FA0028E6D100217AE04FF400401A
:102AF00043F22021C0F6000131F81E106268B0FBDD
:102B0000F1F002EB420188424FF0010169D3130357
:102B1000984266D8010E000210EB520041F100010C
:102B20000023FDF775FB4FF60052A0F54071C0F28F
:102B30000F0291424FD3012153E000BFFEF7BCF9D1
:102B400030B1D4F824E007E0FEF7CCF90028F8D142
:102B5000002146E04FF4004043F22021C0F600017E
:102B600031F81E106268B0FBF1F0510801EB400033
:102B7000B0FBF2F04FF6EF72A0F11001914207D8CE
:102B80004FF6F0710140C0F34200084423E000BF5B
:102B9000012126E0FEF790F930B1D4F824E007E0F7
:102BA000FEF7A0F90028F8D100211AE04FF4004008
:102BB00043F22021C0F6000131F81E104FF6EF72EB
:102BC000B0FBF1F0616800EB5100B0FBF1F0A0F157
:102BD0001001914204D82168C860002101E000BFC3
:102BE00001214FF00110A0660022084622676267AB
:102BF00070BD00BF010000000400000002000000E2
:102C0000080000008165A0F85C20A0F85E208168C3
:102C10000023036751B1B1F1805F0BD0B1F5805F44
:102C20000CD1016921B940F2FF110AE0016939B9FB
:102C3000FF2106E0016919B13F2102E0002100E017
:102C40007F21A0F860100021C0F88C102221C0F86C
:102C5000881000BF016851E8021FD0F800C041F0A1
:102C600001014CE80213F3B1016851E8021FD0F8EA
:102C700000C041F001014CE80213A3B1016851E822
:102C8000021FD0F800C041F001014CE8021353B11B
:102C9000016851E8021FD0F800C041F001014CE882
:102CA0000213002BD6D1416EB1F1005F03D1B0F811
:102CB0006810914246D982680169B2F5805F0BD1F4
:102CC00000294FD042F24951C0F6000101670021AE
:102CD00080F880100AE000BF42F24952C0F60002BC
:102CE00002670022002980F8802043D0016851E863
:102CF000001F026841F4907142E80013002B00F0BD
:102D0000C080016851E8001F026841F4907142E8F8
:102D10000013002B00F0B580016851E8001F026825
:102D200041F4907142E80013002B00F0AA80016882
:102D300051E8001F026841F4907142E80013002B33
:102D4000D4D19EE082680169B2F5805F3CD1002950
:102D50006AD042F29561C0F600010167002180F857
:102D600080103BE042F25111C0F6000101670021E2
:102D700080F88010016851E8001F026841F02001CE
:102D800042E80013002B7CD0016851E8001F026864
:102D900041F0200142E80013002B72D0016851E895
:102DA000001F026841F0200142E80013002B68D0A8
:102DB000016851E8001F026841F0200142E8001359
:102DC000002BD7D15DE000BF42F29562C0F6000251
:102DD0000267002280F8802071B300BF016851E8CB
:102DE000001F026841F4807142E8001323B30168B8
:102DF00051E8001F026841F4807142E80013DBB122
:102E0000016851E8001F026841F4807142E8001334
:102E100093B1016851E8001F026841F4807142E8F3
:102E20000013002BDAD107E042F29D21C0F6000129
:102E30000167002180F88010016851E8021F0268D4
:102E400041F0805142E80213DBB1016851E8021FF2
:102E5000026841F0805142E8021393B1016851E8E1
:102E6000021F026841F0805142E802134BB1016831
:102E700051E8021F026841F0805142E80213002B22
:102E8000DAD10020704700002DE9F04104460068C7
:102E90001546C2690E461140891BB1FA81F14909F4
:102EA000A94240F0A080DDF81880B8F1000F29D0C9
:102EB00018F1010140F08080C1693140891BB1FAED
:102EC00081F14909A94240F08E80C1693140891BD6
:102ED000B1FA81F14909A94240F08580C1693140C8
:102EE000891BB1FA81F14909A9427CD1C1693140FC
:102EF000891BB1FA81F14909A942DDD00020BDE862
:102F0000F08100BFFDF788FB206850E8000F2168C2
:102F100020F4D07041E80002BAB3206850E8000FF6
:102F2000216820F4D07041E8000272B3206850E8B4
:102F3000000F216820F4D07041E800022AB3206815
:102F400050E8000F216820F4D07041E80002002A08
:102F5000DAD11AE0206850E8020F216820F0010061
:102F600041E80202DAB1206850E8020F216820F03F
:102F7000010041E8020292B1206850E8020F216886
:102F800020F0010041E802024AB1206850E8020F37
:102F9000216820F0010041E80202002ADAD1202055
:102FA000C4F8840004F1880020210160002084F826
:102FB00080000320BDE8F0811F4600BFFDF72CFB19
:102FC000C01B4045A0D820680168490744BFC169BB
:102FD0005FEA01510AD4C0693040801BB0FA80F02A
:102FE0004009A842EAD00020BDE8F0814FF400611A
:102FF000016200BF50E8000F216820F4D07041E862
:103000000002C2B3206850E8000F216820F4D0709D
:1030100041E800027AB3206850E8000F216820F4EC
:10302000D07041E8000232B3206850E8000F2168F8
:1030300020F4D07041E80002EAB12068DAE700BF6E
:10304000206850E8020F216820F0010041E80202E8
:10305000DAB1206850E8020F216820F0010041E851
:10306000020292B1206850E8020F216820F00100AE
:1030700041E802024AB1206850E8020F216820F0BE
:10308000010041E80202002ADAD12020C4F88400BD
:10309000C4F8880004F18C0086E7000040F2380094
:1030A000C2F20000FEF77CBAFEE7000080B582B0F5
:1030B000019040F23800C2F2000001A901224FF451
:1030C0007A73FEF7C9FE019802B080BD94B0FDF797
:1030D000B7FA002400200C94CDE90A44CDE9084455
:1030E000FDF74AFB012006904FF480300790022044
:1030F000032555210D90CDE90E50CDE91010CDE9F5
:10310000120006A8FDF72CFF20B1EFF3108072B675
:10311000FEE700BF0F20CDE9010501A80421CDE99C
:1031200003440594FDF728FD20B1EFF3108072B63B
:10313000FEE700BFFEF702FFFEF738FF40F238045B
:10314000C2F2000440F2C801C2F20001204601228E
:10315000FEF704FE40F2100540F60007C2F200053B
:103160000DA6C4F6000700BF2046294626224FF4CC
:103170007A73FEF771FE4FF4FA70FDF73DF93046B1
:1031800000F030F84FF4FA70FDF736F938460121B7
:10319000FDF734FAE8E700BF582050756C736520DE
:1031A00053544D33324734373456455436207573B3
:1031B000617274207072696E746620746573742E07
:1031C0002E2E0D0002E008C8121F08C1002AFAD1F5
:1031D00070477047002001E001C1121F002AFBD197
:1031E0007047000010B5044601E0FFF75FFF14F8D8
:1031F000010B04490028F8D1BDE810400A20FFF770
:1032000055BF00000000002000000000000000008A
:10321000010203040607080900000000010203047C
:10322000010002000400060008000A000C00100063
:1032300020004000800000010000000004000000A9
:103240000200000008000000010101030701000066
:10325000080402040801010178320008000000207F
:1032600038000000C4310008B032000838000020E7
:1032700098040000D4310008000000001000000095
:10328000010000000024F400582050756C73652084
:1032900053544D33324734373456455436207573C2
:1032A00061727420746573742E2E2E0D0A00000056
:04000005080001D915
:00000001FF
